:020000040000FA
:100000005803001069010000710100007301000035
:1000100000000000000000000000000000000000E0
:10002000000000000000000000000000750100005A
:1000300000000000000000007701000079010000CE
:100040007B0100007B0100007B0100007B010000C0
:100050007B0100007B0100007B0100007B010000B0
:100060007B0100007B0100007B0100007B010000A0
:100070007B0100007B0100007B0100007B01000090
:100080009D0100007B0100007B0100007B0100005E
:100090007B010000811100007B0100007B0100005A
:1000A0007B0100007B0100007B0100007B01000060
:1000B0007B0100007B0100007B0100007B01000050
:1000C00000F002F800F040F80CA030C808382418FE
:1000D0002D18A246671EAB4654465D46AC4201D180
:1000E00000F032F87E460F3E0FCCB6460126334272
:1000F00000D0FB1AA246AB4633431847A8170000AE
:10010000C8170000103A02D378C878C1FAD852074D
:1001100001D330C830C101D504680C6070470000BD
:100120000023002400250026103A01D378C1FBD813
:10013000520700D330C100D50B6070471FB5C046D1
:10014000C0461FBD10B510BD01F02BFB1146FFF7D7
:10015000F5FF01F080F900F0C6F803B4FFF7F2FFF5
:1001600003BC01F03DFB00000748804707480047FB
:10017000FEE7FEE7FEE7FEE7FEE7FEE70448054987
:10018000034A054B70470000B9100000C100000091
:1001900058010010580300105801001010B51848FD
:1001A000006808210840082825D116480068401C2E
:1001B0001449086014480078401C1349087013481B
:1001C0000068401C1149086011480068401C104933
:1001D00008600E480068FF2802D100200B49086023
:1001E00000F0E4FE084800780A2804DB00200649F5
:1001F000087000F00FFFFF200149086010BD0000EB
:1002000000C0004050000010080000100C0000105A
:100210005400001070B5002400251448007808210F
:100220000840C408002C1FD000F03BFB0546002D01
:1002300004D00F480078401C0D4908700D48007824
:10024000401C0C4908700A480078062803DD092084
:100250000949086008E007480078322804DD0020DA
:10026000034908700349087070BD00004800001081
:1002700010000010110000104C000010154800681C
:1002800001218902084313490860084600680121DA
:10029000090408430F4908600F48806BC008C0007C
:1002A0000D4988630846806B032108430A49886327
:1002B00008480068012109048843064908600120B4
:1002C000064908630549403988620020886001209A
:1002D00048607047808004404040044040800140B6
:1002E0007047704770470446C046C0462046FFF737
:1002F00034FF000000487047F4000010FFFFFFFFCC
:1003000010B503460022002103E090001858411860
:10031000521C032AF9DD0C46C817800F40188010C4
:1003200010BD70B50026002400F0D7F98F49086091
:10033000084604680A2C03DC0920C043844205DA1D
:100340008B48006880008B490C5005E000208849EC
:1003500009688900874A505085480068002802DDF6
:100360008448C06805E082480068401E80008149DA
:10037000085806467E480068401C7D4908600846CB
:100380000068032801D100200860301B072802DC28
:10039000301BC11D07DA002503E0A80075490C5089
:1003A0006D1C042DF9DB7348FFF7AAFF40B27249B8
:1003B0000870084600214156062906DA00214156F8
:1003C0006E48006800F04BF912E06B48002141567E
:1003D000122906DA002141566948006800F03FF909
:1003E00006E06548002141566648006800F037F98C
:1003F00061490020085600F0FDFD70BD10B500F009
:100400006CF95A49086008460068002805DD08466E
:10041000006840B2584908700BE054480068002852
:1004200007DA52490868C10F0918491049B2524AFF
:1004300011705148002141565148006800F00FF9F1
:100440004D490020085600F0D5FD48480068232893
:1004500010DD15204C4908602D2047490870002008
:10046000085600F0C7FD00231A466421184600F024
:100470008BFD1DE045480068FF210131084217D07F
:100480000B2041490860F8203B49087000200856BD
:1004900000F0B0FD322300221146142000F074FD5C
:1004A00000203B49086000BF394800680528FBD39D
:1004B00010BD10B500F011F92C490860084600681D
:1004C000002805DA0846006840B22B4908700BE0A6
:1004D00026480068002807DD24490868C10F09186C
:1004E000491049B2244A117023480021415624483A
:1004F000006800F0B4F820490020085600F07AFDAA
:100500001A4800682221C943884210DA16201E4981
:100510000860D320184908700020085600F06AFDD2
:10052000642300221146104600F02EFD1CE01748FF
:1005300000680421084217D00B20134908600820E6
:100540000D4908700020085600F054FD00231422C5
:100550003221184600F018FD00200D49086000BF48
:100560000B4800680528FBD310BD00006C0000108C
:1005700004000010A40000104000001060000010F3
:1005800064000010680000104C00001044000010CF
:1005900050000010F3B585B00E4600200490039083
:1005A000002700250024059D3446002C2ADD3B2C25
:1005B00000DD3B243748005D049036483C30005D48
:1005C000039034487830075D0399694308466421F5
:1005D00001F044F840B2029004996943084664214E
:1005E00001F03CF840B22946794301900846642165
:1005F00001F034F840B2009069B2029B019A00F019
:10060000C3FC2AE064423B2C00DD3B242148005D12
:10061000049020483C30005D03901E487830075D10
:10062000294679430846642101F018F840B2029047
:10063000039969430846642101F010F840B2019023
:10064000049969430846642101F008F840B26BB28E
:100650000090029A019900F097FC07B0F0BD70B5C8
:1006600004460D46E6B20C480068092809D100206E
:100670000A49087000231A461946184600F084FCFF
:1006800006E070B20549087069B260B2FFF782FFF8
:1006900070BD0000EE1700004C000010410000107B
:1006A000F8B504460F460526002C02D129480068FB
:1006B000F8BD2146384600F0D1FF054626480068BF
:1006C000401BB04204DB24480068281AB04202DA1A
:1006D00021480068ECE72846EAE7F8B5002700253E
:1006E00000200090002400261C48056800BF29E077
:1006F000E807C00F24D0A000194908581949096813
:10070000401A1949096888421ADAA00014490858A1
:1007100014490968401A14490968494288420FDDA2
:10072000002E04D1A0000E4908580B490860761C21
:10073000A0000B490858C7190098401CC0B200908F
:100740006D08641C0B2CD3DB39460098FFF7A8FF1B
:10075000F8BD000018000010140000104400001044
:10076000740000106C000010A000001018B50146C5
:1007700000230093002200204E4BDB6B5C0801231A
:10078000A3436C46E3704C4BDB6BDC0A0123A343B1
:100790001C466B469C70484BDB6B5C090123A343F2
:1007A0001C466B465C70454BDB6BDB07DB0F0124A3
:1007B0005C406B461C701B786C4664786400234375
:1007C0006C46A478A40023436C46E478E4002343F9
:1007D000DAB213460B40184618BD18B50146002082
:1007E0000A460023009300BF06E0D307DB0F6C46E8
:1007F00023545210431CD8B20428F6DB6B461B78F6
:10080000002B06D02D4BDB6B4024A3432B4CE36322
:1008100005E02A4BDB6B40242343284CE3636B4603
:100820005B78002B06D0234BDB6B0824A343214CC1
:10083000E36305E01F4BDB6B082423431D4CE3639C
:100840006B469B78002B06D01A4BDB6B0424A3432A
:10085000184CE36305E0174BDB6B04242343154C72
:10086000E3636B46DB78002B06D0134BDB6B102465
:10087000A343114CE36305E00F4BDB6B10242343D0
:100880000D4CE36318BD0D48C06B082108430B49AC
:10089000C86370470948C06B082188430749C8638B
:1008A000704700200349C96BC907C90F0122514095
:1008B00008467047C03F0350C03F0150C03F025040
:1008C00070B5002200240021002300202A4DEA6B8D
:1008D0002A4DEC6B2A4DE96B2A4DEB6B5E09012525
:1008E000B54328434E090125B5436D0028430E0941
:1008F0000125B543AD0028431E090125B543ED0090
:100900002843260A0125B5432D01284396080125D1
:10091000B5436D01284356090125B543AD01284370
:10092000CE090125B543ED0128434E080125B54305
:100930002D0228430E0A0125B5436D022843D6082F
:100940000125B543AD02284370BD00200A49C96B9B
:1009500010221140080970470022002100BF06E064
:10096000C307DB0F5B18D9B24008531C5AB20B2ADD
:10097000F6DB054B19707047C03F0050C03F015077
:10098000C03F0250C03F0350420000106248006860
:1009900008218843604908600846006810218843A0
:1009A0005D49086008460068202188435A4908606C
:1009B0000846006840218843574908605748006846
:1009C000FF210131884355490860554800680221DC
:1009D00088435349086008460068102188435049FD
:1009E000086008460068202188434D490860084691
:1009F0000068802188434A49086008460068FF2152
:100A00000131884346490860464800681021884300
:100A1000444908600846006820218843414908602D
:100A20003E480068202188433C4908600846006829
:100A30000121C902884339490860394800684008E3
:100A4000400037490860374800680221884335492B
:100A50000860334800684021084331490860314844
:100A60000068082108432F490860084600680421EF
:100A700008432C4908602948006810210843274989
:100A80000860274800680821084325490860254870
:100A9000006840084000234908602148006801219F
:100AA000490208431E4908600846006804210843BB
:100AB0001B490860184800688021084316490860EF
:100AC0001748006801218902084315490860134846
:100AD0000068022188431149086008460068400800
:100AE0004000086070470020C0430F49C8630F49A9
:100AF000C863C8630E49C8630B49C863704700B533
:100B00000C480068402108430A490860FFF73EFF8F
:100B1000FFF7E9FF00BD0000008000500080015099
:100B20000080025000800350C03F0250C03F03507D
:100B3000C03F015080800440002814D10222934B12
:100B40005A600022DA60924A4A439A61FF221A6090
:100B500004225A6101225A6000BF8C4A5268D207AF
:100B6000D20FFAD115E0012813D10222894B5A6025
:100B70000022DA60864A4A439A61FF221A60042200
:100B80005A6101225A6000BF824A5268D207D20FCE
:100B9000FAD1704701207D4948607E49486070471E
:100BA00000207A4948607B49486070470146002927
:100BB00006D1764A506802221043744A506005E01C
:100BC000744A506802221043724A5060704710B550
:100BD00071480068802108436F4908606F48C06908
:100BE000C008C0006D49C8610846C06902210843B9
:100BF0006A49C86169484030006AC008C000674956
:100C0000403108620846006A0221084363494031C6
:100C100008620846406AC008C00048620846406A48
:100C2000022108435D49403148625D4800685749E8
:100C30008861102000F0A3F857480068FF210131B7
:100C400008435549086055484069C008C0005349E9
:100C500048610846406901210843504948610846F7
:100C6000806BC008C00088630846806B0121084380
:100C70004A49886349484030C06AC008C0004749B3
:100C80004031C8620846C06A0221084343494031E6
:100C9000C862434800683F49886150203B49C860AA
:100CA0003C49C860112000F06AF810BD10B5FFF78C
:100CB0008EFFFFF775FF38480068802108433649EA
:100CC00008600846006889150843334908603548BC
:100CD0003049C86331484030006AC008C0002F491D
:100CE000403108620846006A022108432B4940311E
:100CF00008620846406AC008C00048620846406A68
:100D0000022108432549403148620846C06AC008AC
:100D1000C000C8620846C06A022108431F4940312A
:100D2000C8621E48806BC008C0001C498863084622
:100D3000806B01210843194988630320134940311E
:100D400048630B201349403148634B20C0000F49D2
:100D5000486240108861C86140000E4948624010F6
:100D6000C8618861032040020849486108150949A3
:100D70004861102000F003F8FFF70CFF10BDC20619
:100D8000D20E01219140084A1160704700C0004016
:100D9000E02E00000000014080800440004004403C
:100DA0001C0000105A05000000E100E001202D4960
:100DB0004860704700202B494860704700B52A48BA
:100DC0000068012149020843274908602748006A52
:100DD000C008C000254908620846006A022108438D
:100DE0002249086208201F49C86003204861FFF7B4
:100DF000DDFF00BD00B5FFF7E1FFFFF7DBFF1A489D
:100E0000006801214902084317490860184815493C
:100E1000C8631648406AC008C000144948620846C2
:100E2000406A022108431149486210484038406B2B
:100E3000C008C0000D49403948630846406B032193
:100E400008430A494039486309200649403148634C
:100E50000848044988610848486202204861FFF751
:100E6000A5FF00BD00400140808004408040044058
:100E70005906000040CE00002C2400005F2800DD51
:100E800064205E21C943884200DA481F052802DA3F
:100E9000411D00DD0020704700B5034600221846C2
:100EA000FFF7ECFF0246002A06DB4D48C06B8021AD
:100EB00008434B49C86307E04948C06B8021884319
:100EC0004749C863504242B26420801A45490870BD
:100ED00000BD00B5034600221846FFF7CFFF0246CB
:100EE000002A07DB4048C06B0121890288433E4944
:100EF000C86308E03C48C06B0121890208433A49B5
:100F0000C863504242B26420801A3649487000BD1E
:100F100000B5034600221846FFF7B0FF0246002A3C
:100F200006DB3148C06B042108432F49C86307E042
:100F30002D48C06B042188432B49C863504242B2FC
:100F40006420801A2749887000BD00B5034600223E
:100F50001846FFF793FF0246002A07DB2248C06BC2
:100F60000121490288432049C86308E01E48C06B3C
:100F70000121490208431C49C863504242B264201F
:100F8000801A1849C87000BDF0B507460C461546D2
:100F90001E462046FFF780FF3046FFF79AFF38468F
:100FA000FFF7B6FF2846FFF7D0FFF0BD0D480078E9
:100FB000062148430D49C8610A4840780621484344
:100FC0000B49C86107488078062148430849886171
:100FD0000448C078062148430449886170470000EE
:100FE000C03F005020000010C03F025000C0004031
:100FF000000001403C2801DD3C2004E03B21C943C6
:10100000884200DA084632214143054A8918054AD8
:101010001180704703480088034948627047000008
:101020002C24000024000010004001404D494E4A8D
:10103000116001214D4A1160516000215160012170
:10104000516000BF49494968C907C90FFAD04749EB
:1010500040398868400A400220210143032211439D
:10106000424A403A91604249896B80229143404A0A
:10107000916300BF3D494039C968C907C90FF9D01C
:1010800003213A4A11630121516300215163012177
:10109000516300BF3549496BC907C90FFAD0012117
:1010A000324A9163304909688900324A1160114619
:1010B0000968314A1160704700B500202B4940395A
:1010C00008622B48806B20218843294988630023CC
:1010D00000E05B1CFF2BFCD9FFF7A8FF2348403042
:1010E000006801210904084320494031086000BD1F
:1010F0001E48403000680121090408431B49403163
:101100000860D1201D49086118484030006801215D
:10111000090488431549403108600820134980318B
:101120008862032008620120486200204862012092
:10113000486200BF0D488030406AC007C00FF9D038
:10114000704710B5FFF7B8FFFFF7B0FDFFF752FE8D
:10115000FFF7D5FC4B20C00100F06CF8FFF78EF8CC
:1011600010BD0000001BB7002800001040800440A4
:10117000008204402C0000103000001000400440A9
:1011800070B500BF904A9268D0B240104007400F3F
:10119000032820D18C4A5269D1B29E22114205D037
:1011A0008A4A1160884A1268D3B270BDCA07D20F4A
:1011B0003ED0854C2468E5B2854C2268541C844E90
:1011C0003460844CA55432461268402A30D1002243
:1011D000344622602CE0022811D17B4C2468E5B211
:1011E0007B4C2268541C7A4E34607A4CA5543246AB
:1011F0001268402A1CD100223446226018E00628DA
:1012000007D1724A1268FF24013422436F4C2260D6
:101210000EE001280CD16C4A5269D1B22022114251
:1012200003D001226C4C227002E000226A4C227032
:1012300000BFBAE7F8B504460120674908700020EE
:10124000634908606548406AC008C0006349486255
:101250000846406A01210843604948620846806A9E
:10126000C008C00088620846806A012108435B49C3
:1012700088625B48006801210903084358490860F7
:101280000120886183205049C860554887693946E4
:101290005448006800F0D8F906092146304600F0AD
:1012A000D3F90546280A48494860E8B20860032097
:1012B000C860072088600846476900BF4248406907
:1012C000602108406028F9D101E03F4807683E48A6
:1012D0004069C007C00FF8D105203B494860F8BD00
:1012E0000621394A516010E00178002900D10DE053
:1012F00000BF3549496920221142FAD00178324AAB
:1013000011600021344A1170401CEDE700BF072135
:101310002D4A5160704700BF2B484069C007C00F7D
:10132000FAD029480068C0B27047F0B587B00646C9
:101330000C46182101A800F085F90025002700209F
:101340000090002E01DB009003E00120009070422D
:1013500046B2002E07D12B20207030206070A07084
:101360000020E0702DE00CE00A21304600F076F914
:10137000A80001AA11500A21304600F06FF946B2C8
:101380006D1C002EF0D10098002802D12B20207077
:1013900001E02D202070012706E0E81B800001A954
:1013A00008583030E0557F1CAF42F6DD002061194F
:1013B0004870012D05D1E07001983030A0703020C8
:1013C000607007B0F0BD0000008000403C000010DD
:1013D00038000010B40000103400001080400440B9
:1013E00080800440300000107D4800788007800F26
:1013F00006D001280ED0022816D0032828D11DE0DF
:1014000046207849086041207749086037207749AD
:1014100008601EE03220734908602D207249086080
:1014200023207249086014E03C206E490860372090
:101430006D4908602D206D4908600AE0282069493F
:10144000086023206849086019206849086000E0A6
:1014500000BF00BF7047FFF774FE0020FFF7CAFD12
:1014600000210846FFF796F8FFF714FAB7E000BF2F
:101470005F4800680128FBDB00205D490860FFF73A
:101480001FFA5C49086008460068FFF765FA0F20FC
:10149000FFF76CF952490870FEF7BCFE5648006829
:1014A0000C283ED006DC00280BD009287ED00B2863
:1014B00015D115E00D283CD0152842D016280ED1A4
:1014C0005AE0FFF7E0F90520FFF787F9FFF78CFFF7
:1014D000FFF73BFA002802D10B204749086079E06A
:1014E000FFF7D8F90A20FFF778F9FEF71AFF43480B
:1014F0000068012807D13F480068002803D1152063
:101500003D4908600CE03D4800680121890288429D
:1015100006D138480068002802D1162036490860F4
:1015200058E0FFF7B7F90120FFF757F9FEF766FF1C
:1015300050E0FFF7AFF90220FFF74FF9FEF7B9FFD0
:1015400048E0FFF7A0F90420FFF747F900231A4607
:1015500064211846FFF718FD37202949087000203C
:101560000856FFF747FD234800688007800F02D028
:101570000B20214908602DE0FFF785F90820FFF7CF
:101580002CF96423002211461046FFF7FDFCC92008
:101590001B49087000200856FFF72CFD154800680D
:1015A00003214902084204D00B2000E002E0124966
:1015B00008600FE0FFF767F90F20FFF70EF9FEF75D
:1015C000B0FE00200F49087000210E4A1056FEF7A9
:1015D000E1FF00BF00BF074800680849086046E710
:1015E0004800001060000010640000106800001047
:1015F00054000010440000104C0000107000001057
:10160000400000104100001001E004C0091F04293F
:10161000FBD28B0701D50280801CC90700D0027065
:10162000704700290BD0C30702D00270401C491E2E
:10163000022904D3830702D50280801C891EE3E7B8
:101640000022EEE70022DFE7002203098B422CD3C1
:10165000030A8B4211D300239C464EE003460B4302
:101660003CD4002243088B4231D303098B421CD364
:10167000030A8B4201D394463FE0C3098B4201D356
:10168000CB01C01A524183098B4201D38B01C01A8E
:10169000524143098B4201D34B01C01A5241030905
:1016A0008B4201D30B01C01A5241C3088B4201D3B4
:1016B000CB00C01A524183088B4201D38B00C01A61
:1016C000524143088B4201D34B00C01A5241411A88
:1016D00000D201465241104670475DE0CA0F00D06B
:1016E0004942031000D34042534000229C46030964
:1016F0008B422DD3030A8B4212D3FC22890112BAEA
:10170000030A8B420CD3890192118B4208D38901C1
:1017100092118B4204D389013AD0921100E08909D9
:10172000C3098B4201D3CB01C01A524183098B42BA
:1017300001D38B01C01A524143098B4201D34B01A3
:10174000C01A524103098B4201D30B01C01A524106
:10175000C3088B4201D3CB00C01A524183088B428D
:1017600001D38B00C01A5241D9D243088B4201D316
:101770004B00C01A5241411A00D201466346524101
:101780005B10104601D34042002B00D54942704700
:1017900063465B1000D3404201B50020C046C046FE
:1017A00002BD7546FEF7A6FDAE46050069465346E6
:1017B000C008C000854618B020B5FEF7DFFC60BC4D
:1017C00000274908B6460026C0C5C0C5C0C5C0C56B
:1017D000C0C5C0C5C0C5C0C5403D49008D467047A5
:1017E00001491820ABBEFEE7260002007047646284
:1017F000605F5D5B5957565452504F4D4B494846B8
:101800004442413F3D3C3A3837353332302F2D2B5F
:101810002A2827252322201F1D1C1A1917161413E6
:1018200011100F0D0C0A090806056462605F5D5B0C
:101830005A5857555452514F4E4C4B4A48474645BB
:10184000444241403F3E3D3C3B3A393837363535DE
:101850003433323131302F2E2E2D2C2C2B2B2A2AA3
:1018600029282827272764646464646464636363A5
:101870006362626261616160605F5F5E5E5D5D5C6C
:101880005C5B5B5A595958585756555554535352E7
:101890005150504F4E4D4C4B4B4A4948474645449A
:1018A00044430000C418000000000010A400000021
:1018B0000401000068190000A4000010B402000038
:1018C00020010000000000000000000000000000F7
:1018D0000000000000000000000000000000000008
:1018E000DF2E0000000000002C240000001BB700C9
:1018F000001BB700001BB700010000000000000043
:1019000000000000000000000000000000000000D7
:1019100000000000000000000000000000000000C7
:1019200000000000000000000000000000000000B7
:1019300000000000000000002A0000001800000065
:101940000F0000000A00000004000000000000007A
:10195000FCFFFFFFF6FFFFFFF1FFFFFFE8FFFFFFC8
:08196000D6FFFFFF1E0000008E
:04000005000000C136
:00000001FF
