:020000040000FA
:1000000040030010A1010000A9010000AB010000A5
:1000100000000000000000000000000000000000E0
:10002000000000000000000000000000AD01000022
:100030000000000000000000AF010000B10100005E
:10004000B3010000B3010000B3010000B3010000E0
:10005000B3010000B3010000B3010000B3010000D0
:10006000B3010000B3010000B3010000B3010000C0
:10007000B3010000B3010000B3010000B3010000B0
:10008000D5010000B3010000B3010000B30100007E
:10009000B3010000F91A0000B3010000B301000031
:1000A000B3010000B3010000B3010000B301000080
:1000B000B3010000B3010000B3010000B301000070
:1000C00000F002F800F040F80CA030C808382418FE
:1000D0002D18A246671EAB4654465D46AC4201D180
:1000E00000F032F87E460F3E0FCCB6460126334272
:1000F00000D0FB1AA246AB4633431847C821000084
:10010000E8210000103A02D378C878C1FAD8520723
:1001100001D330C830C101D504680C6070470000BD
:100120000023002400250026103A01D378C1FBD813
:10013000520700D330C100D50B6070471FB5C046D1
:10014000C0461FBD10B510BD02F013F81146FFF7F1
:10015000F5FF01F03CFE02F02BF803B4FFF7F2FFCD
:1001600003BC02F02BF8000070B505460C4616469D
:1001700002E00FCC0FC5103E102EFAD2082E02D38B
:1001800003CC03C5083E042E07D301CC01C5361F9E
:1001900003E021782970641C6D1C761EF9D270BDB5
:1001A0000748804707480047FEE7FEE7FEE7FEE70F
:1001B000FEE7FEE704480549034A054B7047000087
:1001C00011100000C10000004001001040030010A9
:1001D0004001001010B518480068082108400828A0
:1001E00025D116480068401C14490860144800785E
:1001F000401C1349087013480068401C11490860EE
:1002000011480068401C104908600E480068FF282B
:1002100002D100200B49086000F090FE08480078E9
:100220000A2804DB00200649087000F053F8FF207C
:100230000149086010BD000000C000404C000010E3
:10024000080000100C0000105000001070B50024D1
:1002500000251448007808210840C408002C1FD04D
:1002600000F0B5FA0546002D04D00F480078401C78
:100270000D4908700D480078401C0C4908700A4868
:100280000078062803DD09200949086008E00748CE
:100290000078322804DD0020034908700349087003
:1002A00070BD00004400001010000010110000108C
:1002B000480000103C2801DD3C2004E03B21C943FC
:1002C000884200DA084632214143054A8918054A26
:1002D0001180704703480088034948627047000056
:1002E0002C2400002000001000400140704770479F
:1002F0007047000000487047DC000010FFFFFFFF60
:1003000010B5002400F088F97749086008460468B1
:1003100060B27649087000200856FFF7CBFF002C2A
:1003200000DA644272480068002803DB7148006804
:100330006F4908606E480068844207DC6B48002102
:1003400041566D48006800F046F912E068480068C0
:10035000002803DB6320C04365490860634800212F
:100360004156002000F037F961480068401C6049A0
:1003700008606048046010BD10B500F04DF95A499E
:10038000086008460068002805DD0846006840B29D
:10039000564908700BE054480068002807DA5249B3
:1003A0000868C10F0918491049B2504A11704F49E5
:1003B00000200856FFF77EFF4C48002141564F4869
:1003C000006800F008F948480068232810DD15206F
:1003D0004B49086032204549087000200856FFF755
:1003E00069FF00231A466421184600F095FD1DE0C0
:1003F00044480068FF210131084217D00B204049D2
:100400000860F8203949087000200856FFF752FFAD
:10041000322300221146142000F07EFD00203A49CC
:10042000086000BF384800680528FBD310BD10B530
:1004300000F0F2F82C49086008460068002805DA48
:100440000846006840B2294908700BE02648006859
:10045000002807DD24490868C10F0918491049B26E
:10046000224A1170214900200856FFF723FF1F4838
:10047000002141562148006800F0ADF81A48006894
:100480002221C943884210DA16201D490860CE2077
:100490001649087000200856FFF70CFF642300225D
:1004A0001146104600F038FD1CE016480068042193
:1004B000084217D00B201249086008200B49087029
:1004C00000200856FFF7F6FE0023142232211846BA
:1004D00000F022FD00200C49086000BF0A480068B7
:1004E0000528FBD310BD0000680000103C00001080
:1004F00004000010000000105C00001060000010FC
:1005000048000010400000104C000010F3B585B00A
:100510000E46002004900390002700250024059D2E
:100520003446002C2ADD3B2C00DD3B243748005D9F
:10053000049036483C30005D039034487830075DC5
:10054000039969430846642101F070FD40B20290AE
:10055000049969430846642101F068FD40B22946C8
:10056000794301900846642101F060FD40B200909B
:1005700069B2029B019A00F0CFFC2AE064423B2C56
:1005800000DD3B242148005D049020483C30005DA4
:1005900003901E487830075D294679430846642158
:1005A00001F044FD40B2029003996943084664217A
:1005B00001F03CFD40B20190049969430846642172
:1005C00001F034FD40B26BB20090029A019900F044
:1005D000A3FC07B0F0BD70B504460D46E6B20C486A
:1005E0000068092809D100200A49087000231A462A
:1005F0001946184600F090FC06E070B205490870F4
:1006000069B260B2FFF782FF70BD0000CA2100002E
:10061000480000103D000010F8B500270026002516
:1006200000241948066800BF1CE0F007C00F17D06F
:10063000A0001649085816490968401A28280FDAF8
:10064000A0001249085812490968401A2721C943D5
:10065000884205DDA0000D490858C719681CC5B2BD
:100660007608641C0B2CE0DB002D0ADD2946384699
:1006700001F0DCFC074908602946384601F0D6FC49
:10068000F8BD04480068FBE740000010700000104F
:10069000680000101400001018B5014600230093F4
:1006A000002200204E4BDB6B5C080123A3436C4609
:1006B000E3704C4BDB6BDC0A0123A3431C466B4607
:1006C0009C70484BDB6B5C090123A3431C466B46C3
:1006D0005C70454BDB6BDB07DB0F01245C406B463A
:1006E0001C701B786C466478640023436C46A478C5
:1006F000A40023436C46E478E4002343DAB21346B3
:100700000B40184618BD18B5014600200A460023C4
:10071000009300BF06E0D307DB0F6C462354521052
:10072000431CD8B20428F6DB6B461B78002B06D09E
:100730002D4BDB6B4024A3432B4CE36305E02A4B9A
:10074000DB6B40242343284CE3636B465B78002B30
:1007500006D0234BDB6B0824A343214CE36305E065
:100760001F4BDB6B082423431D4CE3636B469B78D4
:10077000002B06D01A4BDB6B0424A343184CE36315
:1007800005E0174BDB6B04242343154CE3636B46F6
:10079000DB78002B06D0134BDB6B1024A343114CEA
:1007A000E36305E00F4BDB6B102423430D4CE36345
:1007B00018BD0D48C06B082108430B49C86370473A
:1007C0000948C06B082188430749C8637047002067
:1007D0000349C96BC907C90F012251400846704738
:1007E000C03F0350C03F0150C03F025070B50022CF
:1007F00000240021002300202A4DEA6B2A4DEC6BD7
:100800002A4DE96B2A4DEB6B5E090125B543284360
:100810004E090125B5436D0028430E090125B54356
:10082000AD0028431E090125B543ED002843260AE3
:100830000125B5432D01284396080125B5436D01D7
:10084000284356090125B543AD012843CE090125AA
:10085000B543ED0128434E080125B5432D02284339
:100860000E0A0125B5436D022843D6080125B5437C
:10087000AD02284370BD00200A49C96B1022114007
:10088000080970470022002100BF06E0C307DB0F04
:100890005B18D9B24008531C5AB20B2AF6DB054B41
:1008A00019707047C03F0050C03F0150C03F025018
:1008B000C03F03503E000010154800680121890226
:1008C00008431349086008460068012109040843E9
:1008D0000F4908600F48806BC008C0000D4988634D
:1008E0000846806B032108430A498863084800686A
:1008F000012109048843064908600120064908636C
:1009000005494039886200208860012048607047AE
:1009100080800440404004404080014062480068BC
:100920000821884360490860084600681021884310
:100930005D49086008460068202188435A490860DC
:1009400008460068402188435749086057480068B6
:10095000FF2101318843554908605548006802214C
:10096000884353490860084600681021884350496D
:10097000086008460068202188434D490860084601
:100980000068802188434A49086008460068FF21C2
:100990000131884346490860464800681021884371
:1009A000444908600846006820218843414908609E
:1009B0003E480068202188433C490860084600689A
:1009C0000121C90288433949086039480068400854
:1009D000400037490860374800680221884335499C
:1009E00008603348006840210843314908603148B5
:1009F0000068082108432F49086008460068042160
:100A000008432C49086029480068102108432749F9
:100A100008602748006808210843254908602548E0
:100A2000006840084000234908602148006801210F
:100A3000490208431E49086008460068042108432B
:100A40001B4908601848006880210843164908605F
:100A500017480068012189020843154908601348B6
:100A60000068022188431149086008460068400870
:100A70004000086070470020C0430F49C8630F4919
:100A8000C863C8630E49C8630B49C863704700B5A3
:100A90000C480068402108430A490860FFF73EFF00
:100AA000FFF7E9FF00BD000000800050008001500A
:100AB0000080025000800350C03F0250C03F0350EE
:100AC000C03F015080800440002814D10222934B83
:100AD0005A600022DA60924A4A439A61FF221A6001
:100AE00004225A6101225A6000BF8C4A5268D20720
:100AF000D20FFAD115E0012813D10222894B5A6096
:100B00000022DA60864A4A439A61FF221A60042270
:100B10005A6101225A6000BF824A5268D207D20F3E
:100B2000FAD1704701207D4948607E49486070478E
:100B300000207A4948607B49486070470146002997
:100B400006D1764A506802221043744A506005E08C
:100B5000744A506802221043724A5060704710B5C0
:100B600071480068802108436F4908606F48C06978
:100B7000C008C0006D49C8610846C0690221084329
:100B80006A49C86169484030006AC008C0006749C6
:100B9000403108620846006A022108436349403137
:100BA00008620846406AC008C00048620846406AB9
:100BB000022108435D49403148625D480068574959
:100BC0008861102000F0A3F857480068FF21013128
:100BD00008435549086055484069C008C00053495A
:100BE0004861084640690121084350494861084668
:100BF000806BC008C00088630846806B01210843F1
:100C00004A49886349484030C06AC008C000474923
:100C10004031C8620846C06A022108434349403156
:100C2000C862434800683F49886150203B49C8601A
:100C30003C49C860112000F06AF810BD10B5FFF7FC
:100C40008EFFFFF775FF384800688021084336495A
:100C5000086008460068891508433349086035482C
:100C60003049C86331484030006AC008C0002F498D
:100C7000403108620846006A022108432B4940318E
:100C800008620846406AC008C00048620846406AD8
:100C9000022108432549403148620846C06AC0081D
:100CA000C000C8620846C06A022108431F4940319B
:100CB000C8621E48806BC008C0001C498863084693
:100CC000806B01210843194988630320134940318F
:100CD00048630B201349403148634B20C0000F4943
:100CE000486240108861C86140000E494862401067
:100CF000C861886103204002084948610815094914
:100D00004861102000F003F8FFF70CFF10BDC20689
:100D1000D20E01219140084A1160704700C0004086
:100D2000E02E0000000001408080044000400440AC
:100D3000180000105A05000000E100E001202D49D4
:100D40004860704700202B494860704700B52A482A
:100D50000068012149020843274908602748006AC2
:100D6000C008C000254908620846006A02210843FD
:100D70002249086208201F49C86003204861FFF724
:100D8000DDFF00BD00B5FFF7E1FFFFF7DBFF1A480D
:100D900000680121490208431749086018481549AD
:100DA000C8631648406AC008C00014494862084633
:100DB000406A022108431149486210484038406B9C
:100DC000C008C0000D49403948630846406B032104
:100DD00008430A49403948630920064940314863BD
:100DE0000848044988610848486202204861FFF7C2
:100DF000A5FF00BD004001408080044080400440C9
:100E00005906000040CE00002C2400005F2800DDC1
:100E100064205E21C943884200DA481F052802DAAF
:100E2000411D00DD0020704700B503460022184632
:100E3000FFF7ECFF0246002A06DB4D48C06B80211D
:100E400008434B49C86307E04948C06B8021884389
:100E50004749C863504242B26420801A454908702D
:100E600000BD00B5034600221846FFF7CFFF02463B
:100E7000002A07DB4048C06B0121890288433E49B4
:100E8000C86308E03C48C06B0121890208433A4925
:100E9000C863504242B26420801A3649487000BD8F
:100EA00000B5034600221846FFF7B0FF0246002AAD
:100EB00006DB3148C06B042108432F49C86307E0B3
:100EC0002D48C06B042188432B49C863504242B26D
:100ED0006420801A2749887000BD00B503460022AF
:100EE0001846FFF793FF0246002A07DB2248C06B33
:100EF0000121490288432049C86308E01E48C06BAD
:100F00000121490208431C49C863504242B264208F
:100F1000801A1849C87000BDF0B507460C46154642
:100F20001E462046FFF780FF3046FFF79AFF3846FF
:100F3000FFF7B6FF2846FFF7D0FFF0BD0D48007859
:100F4000062148430D49C8610A48407806214843B4
:100F50000B49C861074880780621484308498861E1
:100F60000448C0780621484304498861704700005E
:100F7000C03F00501C000010C03F025000C00040A5
:100F8000000001404D494E4A116001214D4A116057
:100F90005160002151600121516000BF49494968F9
:100FA000C907C90FFAD0474940398868400A40024A
:100FB0002021014303221143424A403A91604249B1
:100FC000896B80229143404A916300BF3D4940397B
:100FD000C968C907C90FF9D003213A4A1163012131
:100FE0005163002151630121516300BF3549496BB1
:100FF000C907C90FFAD00121324A91633049096803
:101000008900324A116011460968314A11607047FF
:1010100000B500202B49403908622B48806B202105
:10102000884329498863002300E05B1CFF2BFCD91F
:10103000FFF7A8FF23484030006801210904084356
:1010400020494031086000BD1E4840300068012141
:10105000090408431B4940310860D1201D4908613B
:10106000184840300068012109048843154940317F
:10107000086008201349803188620320086201203B
:101080004862002048620120486200BF0D4880305D
:10109000406AC007C00FF9D0704710B5FFF7B8FF1E
:1010A000FFF7CCFDFFF76EFEFFF7F1FC4B20C00110
:1010B00000F07CFDFFF700FC10BD0000001BB70036
:1010C00024000010408004400082044028000010EA
:1010D0002C00001000400440F0B58DB00025002623
:1010E00001270024CDA00C90D1A00B90D1A00A9094
:1010F000DBA00990E5A00890EFA00790CCA0069097
:10110000F8A00590CAA00490FBA00390FFA0019056
:101110000C9800F0A1FD0B9800F09EFD0A9800F0DD
:101120009BFD099800F098FD089800F095FD079840
:1011300000F092FD069800F08FFD059800F08CFD00
:10114000049800F089FD039800F086FDF0480457EC
:1011500002A9204600F0A5FD02A800F07DFD01983F
:1011600000F07AFD00BF5DE00026012700F08FFD52
:101170000646612E17D00CDC452E23D004DC412E10
:1011800010D0442E27D111E0532E17D0572E22D144
:1011900010E0642E0BD0652E15D0732E0FD0772E55
:1011A00019D108E000BF601C44B21BE000BF601E04
:1011B00044B217E000BF601D44B213E000BF601FDF
:1011C00044B20FE000BF00240125FFF7F9FA002028
:1011D000FFF799FA06E00027FFF7F2FA0020FFF781
:1011E00092FA00BF00BF3C2C01DD3C2404E03B2010
:1011F000C043844200DA0446002F0CD002A92046E6
:1012000000F04FFD039800F027FD02A800F024FD38
:10121000019800F021FDBE480470014600200856E8
:10122000FFF748F8002D9FD00DB0F0BDF0B58DB0A0
:101230000025002601270024B6A00C907CA00B906E
:10124000B9A00A90C3A00990CDA00890D7A007909C
:1012500077A00690A3A0059075A00490DEA003904F
:10126000AAA001900C9800F0F7FC0B9800F0F4FC99
:101270000A9800F0F1FC099800F0EEFC089800F0E4
:10128000EBFC079800F0E8FC069800F0E5FC0598F8
:1012900000F0E2FC049800F0DFFCD548045702A9F6
:1012A000204600F0FEFC039800F0D6FC02A800F0F7
:1012B000D3FC019800F0D0FC00BF58E000260127C5
:1012C00000F0E5FC0646612E17D00CDC452E23D03D
:1012D00004DC412E10D0442E27D111E0532E17D01C
:1012E000572E22D110E0642E0BD0652E15D0732E10
:1012F0000FD0772E19D108E000BF601C44B216E071
:1013000000BF601E44B212E000BF601D44B20EE098
:1013100000BF601F44B20AE000BF0024FFF750FA8C
:101320000020FFF7F0F9012501E0002700BF00BF12
:10133000642C01DD642404E06320C043844200DAAD
:101340000446002F0CD002A9204600F0AAFC039806
:1013500000F082FC02A800F07FFC019800F07CFC09
:10136000A3480470002102465056FFF7CFF8002D25
:10137000A4D00DB0F0BDF0B589B000260027002440
:1013800000259CA008902AA007909FA00690A8A0E6
:10139000059027A0049053A0039025A002900898E0
:1013A00000F05AFC079800F057FC069800F054FC37
:1013B000059800F051FC049800F04EFC039800F0F2
:1013C0004BFC029800F048FC00BF63E1002700F0EE
:1013D0005EFC0746312F06D0322F1CD0452F1BD084
:1013E000652F1AD14DE1FFF701FA0446FFF7E8F93E
:1013F00000250EE0012080022040800A303069463E
:101400000870002048706400684600F025FC681CE5
:10141000C5B20B2D20E125E132E139E10D546573B0
:101420007420536572766F20416E676C650A000008
:101430000D0A00000D507265737320274127207438
:101440006F20506C757320536572766F20416E6704
:101450006C652031202020202020202B310A000024
:101460000D50726573732027442720746F204D69D7
:101470006E757320536572766F20416E676C6520C0
:10148000312020202020202D310A00000D507265CF
:1014900073732027572720746F20506C7573205367
:1014A0006572766F20416E676C65203520202020A4
:1014B0002020202B350A00000D5072657373202701
:1014C000532720746F204D696E75732053657276B3
:1014D0006F20416E676C6520352020202020202D54
:1014E000350A00000D50726573732027452720745C
:1014F0006F20457869740A0043757272656E7420B6
:10150000416E676C65203D20000000000D0000006A
:101510003C0000100D54657374204D6F746F722081
:1015200053706565640A00000D507265737320275F
:10153000412720746F20506C7573204D6F746F724B
:101540002053706565642031202020202020202B2E
:10155000310A00000D5072657373202744272074F0
:101560006F204D696E7573204D6F746F72205370CC
:1015700065656420312020202020202D310A0000C4
:101580000D50726573732027572720746F20506C9D
:101590007573204D6F746F722053706565642035CC
:1015A000202020202020202B350A00000D507265BD
:1015B00073732027532720746F204D696E75732035
:1015C0004D6F746F72205370656564203520202044
:1015D0002020202D350A000043757272656E74203C
:1015E0004D6F746F722050574D203D200000000059
:1015F0003D0000100D5465737420436172205365E3
:101600006E736F72730A00000D507265737320273A
:10161000312720446973706C61792074726163654D
:101620002073656E736F722076616C75650A0000B9
:101630000D50726573732027322720446973706CD4
:101640006179207374617274206261722073656EB7
:10165000736F720A0000000000DACBE6029800F017
:10166000FBFA16E0FFF707F90446694660B200F09E
:1016700018FB684600F0F0FA029800F0EDFA08E076
:1016800000BF0126FFF79CF80020FFF73CF800E0C0
:1016900000BF00BF002E00D198E609B0F0BDF0B544
:1016A0008BB0002500260024A6A7ABA00A90ABA013
:1016B0000990B9A00890BEA00790C4A00690C9A048
:1016C0000590A5A00490CD480390A3A002903846B1
:1016D00000F0C2FA0A9800F0BFFA099800F0BCFACC
:1016E000089800F0B9FA079800F0B6FA069800F0EA
:1016F000B3FA059800F0B0FA049800F0ADFA039838
:1017000000F0AAFA029800F0A7FA00BF49E000F042
:10171000BEFA0646342E2ED006DC312E0BD0322EE9
:101720001DD0332E3BD120E0352E2AD0452E2ED091
:10173000652E34D12CE00F20FEF7AEFF0446204684
:10174000FEF7E1FFFFF73CF801A960B200F0A9FA4B
:1017500001A800F081FA029800F07EFA20E00F2044
:10176000FEF7D1FFFFF72CF81AE00020FEF7CBFFC1
:10177000FFF726F814E00020FEF7C5FFFFF719F881
:101780000EE00020FEF7BFFFFFF71AF808E000BFE9
:1017900001250020FEF7B7FFFFF712F800E000BFB9
:1017A00000BF002DB3D00BB0F0BDF0B58BB000245E
:1017B00000250026002792A00A9067A0099094A017
:1017C00008909CA007908D48069063A005900A9809
:1017D00000F042FA099800F03FFA089800F03CFA4D
:1017E000079800F039FA069800F036FA059800F0EC
:1017F00033FA00BF2AE000F04AFA0546312D06D040
:10180000322D11D0452D1CD0652D1DD11AE09348E5
:10181000066803A970B200F044FA03A800F01CFAAD
:10182000059800F019FA10E08D480768694678B20B
:1018300000F037FA684600F00FFA059800F00CFA4D
:1018400003E000BF012400E000BF00BF002CD2D0A5
:101850000BB0F0BDF0B589B00024002501263EA7ED
:10186000804808903CA007907FA0069085A0059036
:101870008BA0049091A0039098A0029036A00190B4
:101880005CE0002E1BD0384600F0E6F9089800F026
:10189000E3F9079800F0E0F9069800F0DDF9059803
:1018A00000F0DAF9049800F0D7F9039800F0D4F9C1
:1018B000029800F0D1F9019800F0CEF9002600F06E
:1018C000E6F90446352C20D008DC312C0DD0322C22
:1018D0000FD0332C11D0342C2ED112E0362C18D04E
:1018E000452C26D0652C27D124E0FFF7F5FB0126F7
:1018F00023E0FFF79BFC01261FE0FFF73CFD0126DC
:101900001BE0FFF7CCFE012617E0FFF74EFF012694
:1019100013E000211420FEF7F9FD0020FEF7CAFCB9
:10192000029800F099F900BF00F0B1F96528FBD1E9
:1019300003E000BF012500E000BF00BF002DA0D0E4
:1019400009B0F0BD0D5465737420506572697068FC
:101950006572790A000000000D0A00000D507265E2
:1019600073732027312720446973706C61792034A8
:101970006269745F5377697463682056616C75653A
:1019800020746F2053637265656E20616E64204C15
:101990004544730A000000000D50726573732027E0
:1019A000322720416C6C204C454473204F6E0A0056
:1019B0000D50726573732027332720416C6C204CC7
:1019C000454473206F66660A000000000D50726582
:1019D0007373202734272042757A7A6572204F6E00
:1019E0000A0000000D5072657373202735272042CE
:1019F000757A7A6572206F66660A0000E41400004A
:101A00000D54657374456E636F6465720A0000005F
:101A10000D50726573732027312720446973706CF1
:101A200061792063757272656E7420737065656488
:101A30000A0000000D50726573732027322720447E
:101A40006973706C61792063757272656E7420645D
:101A5000697374616E63650A000000005400001031
:101A600058000010802200000D507265737320270B
:101A7000312720746F205465737420536572766F1C
:101A80000D0A00000D5072657373202732272074F1
:101A90006F2054657374204D6F746F720D0A0000CF
:101AA0000D50726573732027332720746F2054659F
:101AB00073742053656E736F720D0A000D5072655A
:101AC00073732027342720746F205465737420505B
:101AD00065726970686572790D0A00000D50726553
:101AE00073732027352720746F2054657374204545
:101AF0006E636F646572000070B500BF904A9268B3
:101B0000D0B240104007400F032820D18C4A5269C0
:101B1000D1B29E22114205D08A4A1160884A1268C9
:101B2000D3B270BDCA07D20F3ED0854C2468E5B24F
:101B3000854C2268541C844E3460844CA554324633
:101B40001268402A30D10022344622602CE002285C
:101B500011D17B4C2468E5B27B4C2268541C7A4E30
:101B600034607A4CA55432461268402A1CD10022B7
:101B70003446226018E0062807D1724A1268FF2412
:101B8000013422436F4C22600EE001280CD16C4AD4
:101B90005269D1B22022114203D001226C4C227032
:101BA00002E000226A4C227000BFBAE7F8B5044692
:101BB0000120674908700020634908606548406A51
:101BC000C008C000634948620846406A01210843D2
:101BD000604948620846806AC008C00088620846BA
:101BE000806A012108435B4988625B4800680121E3
:101BF000090308435849086001208861832050493F
:101C0000C8605548876939465448006800F004FAAE
:101C100006092146304600F0FFF90546280A4849E2
:101C20004860E8B208600320C86007208860084662
:101C3000476900BF42484069602108406028F9D1E7
:101C400001E03F4807683E484069C007C00FF8D12F
:101C500005203B494860F8BD0621394A516010E033
:101C60000178002900D10DE000BF354949692022E3
:101C70001142FAD00178324A11600021344A1170C1
:101C8000401CEDE700BF07212D4A5160704700BF9F
:101C90002B484069C007C00FFAD029480068C0B27D
:101CA0007047F0B587B006460C46182101A800F031
:101CB000B1F90025002700200090002E01DB0090E4
:101CC00003E001200090704246B2002E07D12B2085
:101CD000207030206070A0700020E0702DE00CE0DB
:101CE0000A21304600F0A2F9A80001AA11500A21E9
:101CF000304600F09BF946B26D1C002EF0D10098E2
:101D0000002802D12B20207001E02D202070012717
:101D100006E0E81B800001A908583030E0557F1C20
:101D2000AF42F6DD002061194870012D05D1E07049
:101D300001983030A0703020607007B0F0BD000016
:101D40000080004038000010340000109C0000109B
:101D50003000001080400440808004402C000010BF
:101D6000834800788007800F06D001280ED0022813
:101D700016D0032828D11DE064207E490860372052
:101D80007D49086028207D4908601EE0502079497F
:101D900008602820784908601E207849086014E00F
:101DA0005A20744908602D20734908602320734924
:101DB00008600AE028206F4908601E206E4908600C
:101DC00014206E49086000E000BF00BF704790B06B
:101DD00040226BA16846FEF7C7F9FFF75EF90020C5
:101DE000FEF768FA00210846FEF790FBFEF7E8FCD4
:101DF000FFF730FD6846FFF72FFFB7E000BF7048E0
:101E000000680128FBDB00206D490860FEF7EEFC4E
:101E10006C49086008460068FEF734FD0F20FEF7A5
:101E20003BFC53490870FEF711FA674800680C281C
:101E30003ED006DC00280BD009287ED00B2815D117
:101E400015E00D283CD0152842D016280ED15AE0B6
:101E5000FEF7AFFC0520FEF756FCFFF781FFFEF70B
:101E60000AFD002802D10B205749086079E0FEF7EF
:101E7000A7FC0A20FEF747FCFEF742FA5348006829
:101E8000012807D14F480068002803D115204E498A
:101E900008600CE04D48006801218902884206D1A3
:101EA00048480068002802D116204749086058E0D9
:101EB000FEF786FC0120FEF726FCFEF75DFA50E0F7
:101EC000FEF77EFC0220FEF71EFCFEF7B0FA48E0AB
:101ED000FEF76FFC0420FEF716FC00231A4664216F
:101EE0001846FFF719F837203949087000200856BE
:101EF000FEF7E0F9334800688007800F02D00B201E
:101F0000314908602DE0FEF754FC0820FEF7FBFB8A
:101F10006423002211461046FEF7FEFFC9202C491B
:101F2000087000200856FEF7C5F92648006803210E
:101F30004902084204D00B2000E002E02249086078
:101F40000FE0FEF736FC0F20FEF7DDFBFEF7D8F9B9
:101F500000202049087000211E4A1056FEF7D6FACC
:101F600000BF00BF174800681849086046E7000036
:101F7000440000105C0000106000001064000010BD
:101F80000A54657374204A6F6220456E64210A49C1
:101F90006620796F752077616E7420746F205465A8
:101FA000737420616761696E2C706C656173652064
:101FB00052657365742074686520435055210A008A
:101FC0005000001040000010480000106C0000108D
:101FD0003C0000103D00001001E004C0091F04296E
:101FE000FBD28B0701D50280801CC90700D002708C
:101FF000704700290BD0C30702D00270401C491E55
:10200000022904D3830702D50280801C891EE3E7DE
:102010000022EEE70022DFE7002203098B422CD3E7
:10202000030A8B4211D300239C464EE003460B4328
:102030003CD4002243088B4231D303098B421CD38A
:10204000030A8B4201D394463FE0C3098B4201D37C
:10205000CB01C01A524183098B4201D38B01C01AB4
:10206000524143098B4201D34B01C01A524103092B
:102070008B4201D30B01C01A5241C3088B4201D3DA
:10208000CB00C01A524183088B4201D38B00C01A87
:10209000524143088B4201D34B00C01A5241411AAE
:1020A00000D201465241104670475DE0CA0F00D091
:1020B0004942031000D34042534000229C4603098A
:1020C0008B422DD3030A8B4212D3FC22890112BA10
:1020D000030A8B420CD3890192118B4208D38901E8
:1020E00092118B4204D389013AD0921100E0890900
:1020F000C3098B4201D3CB01C01A524183098B42E1
:1021000001D38B01C01A524143098B4201D34B01C9
:10211000C01A524103098B4201D30B01C01A52412C
:10212000C3088B4201D3CB00C01A524183088B42B3
:1021300001D38B00C01A5241D9D243088B4201D33C
:102140004B00C01A5241411A00D201466346524127
:102150005B10104601D34042002B00D54942704726
:1021600063465B1000D3404201B50020C046C04624
:1021700002BD7546FEF7BEF8AE46050069465346F9
:10218000C008C000854618B020B5FEF713F860BC43
:1021900000274908B6460026C0C5C0C5C0C5C0C591
:1021A000C0C5C0C5C0C5C0C5403D49008D467047CB
:1021B0000446C046C0462046FDF7CFFF014918201F
:1021C000ABBEFEE72600020070476462605F5D5BA5
:1021D0005958565452514F4D4C4A48464543414038
:1021E0003E3C3B3937363432312F2E2C2A292726D4
:1021F000242321201E1C1B191816151412110F0E52
:102200000C0B090807056462615F5D5C5A595756FB
:10221000545351504F4D4C4B494847464544434118
:10222000403F3E3D3C3B3A3A39383736353534331A
:1022300032323130302F2E2E2D2C2C2B2B2A2A29C6
:1022400029286464646464646464636363636262CD
:102250006261616160605F5F5E5E5D5D5C5C5B5B97
:102260005A59595857575655555453525251504F21
:102270004F4E4D4C4B4A4949484746454443000060
:102280000D5065726970686572616C204571756981
:10229000706D656E742C44726976652050726F673C
:1022A00072616D2C4369726375697420426F61724B
:1022B000642054657374204D656E752D2D2D2D2D64
:1022C0000A000000E4220000000000109C00000052
:1022D00004010000802300009C000010A402000004
:1022E00020010000000000000000000000000000CD
:1022F000000000000000000000000000DF2E0000D1
:10230000000000002C240000001BB700001BB700D9
:10231000001BB700010000000000000000000000EA
:1023200000000000000000000000000000000000AD
:10233000000000000000000000000000000000009D
:10234000000000000000000000000000000000008D
:1023500000000000320000002D0000001E00000000
:10236000120000000500000000000000FBFFFFFF5E
:10237000EEFFFFFFE2FFFFFFD3FFFFFFCEFFFFFFF8
:04000005000000C136
:00000001FF
